{
	"data": {
		"bytecode": {
			"linkReferences": {},
			"object": "608060405234801561000f575f80fd5b5060405161079a38038061079a83398181016040528101906100319190610195565b80805f908161004091906103e9565b5050506104b8565b5f604051905090565b5f80fd5b5f80fd5b5f80fd5b5f80fd5b5f601f19601f8301169050919050565b7f4e487b71000000000000000000000000000000000000000000000000000000005f52604160045260245ffd5b6100a782610061565b810181811067ffffffffffffffff821117156100c6576100c5610071565b5b80604052505050565b5f6100d8610048565b90506100e4828261009e565b919050565b5f67ffffffffffffffff82111561010357610102610071565b5b61010c82610061565b9050602081019050919050565b8281835e5f83830152505050565b5f610139610134846100e9565b6100cf565b9050828152602081018484840111156101555761015461005d565b5b610160848285610119565b509392505050565b5f82601f83011261017c5761017b610059565b5b815161018c848260208601610127565b91505092915050565b5f602082840312156101aa576101a9610051565b5b5f82015167ffffffffffffffff8111156101c7576101c6610055565b5b6101d384828501610168565b91505092915050565b5f81519050919050565b7f4e487b71000000000000000000000000000000000000000000000000000000005f52602260045260245ffd5b5f600282049050600182168061022a57607f821691505b60208210810361023d5761023c6101e6565b5b50919050565b5f819050815f5260205f209050919050565b5f6020601f8301049050919050565b5f82821b905092915050565b5f6008830261029f7fffffffffffffffffffffffffffffffffffffffffffffffffffffffffffffffff82610264565b6102a98683610264565b95508019841693508086168417925050509392505050565b5f819050919050565b5f819050919050565b5f6102ed6102e86102e3846102c1565b6102ca565b6102c1565b9050919050565b5f819050919050565b610306836102d3565b61031a610312826102f4565b848454610270565b825550505050565b5f90565b61032e610322565b6103398184846102fd565b505050565b5b8181101561035c576103515f82610326565b60018101905061033f565b5050565b601f8211156103a15761037281610243565b61037b84610255565b8101602085101561038a578190505b61039e61039685610255565b83018261033e565b50505b505050565b5f82821c905092915050565b5f6103c15f19846008026103a6565b1980831691505092915050565b5f6103d983836103b2565b9150826002028217905092915050565b6103f2826101dc565b67ffffffffffffffff81111561040b5761040a610071565b5b6104158254610213565b610420828285610360565b5f60209050601f831160018114610451575f841561043f578287015190505b61044985826103ce565b8655506104b0565b601f19841661045f86610243565b5f5b8281101561048657848901518255600182019150602085019450602081019050610461565b868310156104a3578489015161049f601f8916826103b2565b8355505b6001600288020188555050505b505050505050565b6102d5806104c55f395ff3fe608060405234801561000f575f80fd5b5060043610610029575f3560e01c80638fe89eb11461002d575b5f80fd5b61003561004b565b604051610042919061017d565b60405180910390f35b60605f61005661007e565b9050806040516020016100699190610221565b60405160208183030381529060405291505090565b60605f805461008c9061026f565b80601f01602080910402602001604051908101604052809291908181526020018280546100b89061026f565b80156101035780601f106100da57610100808354040283529160200191610103565b820191905f5260205f20905b8154815290600101906020018083116100e657829003601f168201915b5050505050905090565b5f81519050919050565b5f82825260208201905092915050565b8281835e5f83830152505050565b5f601f19601f8301169050919050565b5f61014f8261010d565b6101598185610117565b9350610169818560208601610127565b61017281610135565b840191505092915050565b5f6020820190508181035f8301526101958184610145565b905092915050565b5f81905092915050565b5f6101b18261010d565b6101bb818561019d565b93506101cb818560208601610127565b80840191505092915050565b7f207920736f792041626f6761646f0000000000000000000000000000000000005f82015250565b5f61020b600e8361019d565b9150610216826101d7565b600e82019050919050565b5f61022c82846101a7565b9150610237826101ff565b915081905092915050565b7f4e487b71000000000000000000000000000000000000000000000000000000005f52602260045260245ffd5b5f600282049050600182168061028657607f821691505b60208210810361029957610298610242565b5b5091905056fea2646970667358221220279b2cf49bca22b266820d9a2153c86d008de75f9dcb2bd5a27acacb297eff1e64736f6c634300081a0033",
			"opcodes": "PUSH1 0x80 PUSH1 0x40 MSTORE CALLVALUE DUP1 ISZERO PUSH2 0xF JUMPI PUSH0 DUP1 REVERT JUMPDEST POP PUSH1 0x40 MLOAD PUSH2 0x79A CODESIZE SUB DUP1 PUSH2 0x79A DUP4 CODECOPY DUP2 DUP2 ADD PUSH1 0x40 MSTORE DUP2 ADD SWAP1 PUSH2 0x31 SWAP2 SWAP1 PUSH2 0x195 JUMP JUMPDEST DUP1 DUP1 PUSH0 SWAP1 DUP2 PUSH2 0x40 SWAP2 SWAP1 PUSH2 0x3E9 JUMP JUMPDEST POP POP POP PUSH2 0x4B8 JUMP JUMPDEST PUSH0 PUSH1 0x40 MLOAD SWAP1 POP SWAP1 JUMP JUMPDEST PUSH0 DUP1 REVERT JUMPDEST PUSH0 DUP1 REVERT JUMPDEST PUSH0 DUP1 REVERT JUMPDEST PUSH0 DUP1 REVERT JUMPDEST PUSH0 PUSH1 0x1F NOT PUSH1 0x1F DUP4 ADD AND SWAP1 POP SWAP2 SWAP1 POP JUMP JUMPDEST PUSH32 0x4E487B7100000000000000000000000000000000000000000000000000000000 PUSH0 MSTORE PUSH1 0x41 PUSH1 0x4 MSTORE PUSH1 0x24 PUSH0 REVERT JUMPDEST PUSH2 0xA7 DUP3 PUSH2 0x61 JUMP JUMPDEST DUP2 ADD DUP2 DUP2 LT PUSH8 0xFFFFFFFFFFFFFFFF DUP3 GT OR ISZERO PUSH2 0xC6 JUMPI PUSH2 0xC5 PUSH2 0x71 JUMP JUMPDEST JUMPDEST DUP1 PUSH1 0x40 MSTORE POP POP POP JUMP JUMPDEST PUSH0 PUSH2 0xD8 PUSH2 0x48 JUMP JUMPDEST SWAP1 POP PUSH2 0xE4 DUP3 DUP3 PUSH2 0x9E JUMP JUMPDEST SWAP2 SWAP1 POP JUMP JUMPDEST PUSH0 PUSH8 0xFFFFFFFFFFFFFFFF DUP3 GT ISZERO PUSH2 0x103 JUMPI PUSH2 0x102 PUSH2 0x71 JUMP JUMPDEST JUMPDEST PUSH2 0x10C DUP3 PUSH2 0x61 JUMP JUMPDEST SWAP1 POP PUSH1 0x20 DUP2 ADD SWAP1 POP SWAP2 SWAP1 POP JUMP JUMPDEST DUP3 DUP2 DUP4 MCOPY PUSH0 DUP4 DUP4 ADD MSTORE POP POP POP JUMP JUMPDEST PUSH0 PUSH2 0x139 PUSH2 0x134 DUP5 PUSH2 0xE9 JUMP JUMPDEST PUSH2 0xCF JUMP JUMPDEST SWAP1 POP DUP3 DUP2 MSTORE PUSH1 0x20 DUP2 ADD DUP5 DUP5 DUP5 ADD GT ISZERO PUSH2 0x155 JUMPI PUSH2 0x154 PUSH2 0x5D JUMP JUMPDEST JUMPDEST PUSH2 0x160 DUP5 DUP3 DUP6 PUSH2 0x119 JUMP JUMPDEST POP SWAP4 SWAP3 POP POP POP JUMP JUMPDEST PUSH0 DUP3 PUSH1 0x1F DUP4 ADD SLT PUSH2 0x17C JUMPI PUSH2 0x17B PUSH2 0x59 JUMP JUMPDEST JUMPDEST DUP2 MLOAD PUSH2 0x18C DUP5 DUP3 PUSH1 0x20 DUP7 ADD PUSH2 0x127 JUMP JUMPDEST SWAP2 POP POP SWAP3 SWAP2 POP POP JUMP JUMPDEST PUSH0 PUSH1 0x20 DUP3 DUP5 SUB SLT ISZERO PUSH2 0x1AA JUMPI PUSH2 0x1A9 PUSH2 0x51 JUMP JUMPDEST JUMPDEST PUSH0 DUP3 ADD MLOAD PUSH8 0xFFFFFFFFFFFFFFFF DUP2 GT ISZERO PUSH2 0x1C7 JUMPI PUSH2 0x1C6 PUSH2 0x55 JUMP JUMPDEST JUMPDEST PUSH2 0x1D3 DUP5 DUP3 DUP6 ADD PUSH2 0x168 JUMP JUMPDEST SWAP2 POP POP SWAP3 SWAP2 POP POP JUMP JUMPDEST PUSH0 DUP2 MLOAD SWAP1 POP SWAP2 SWAP1 POP JUMP JUMPDEST PUSH32 0x4E487B7100000000000000000000000000000000000000000000000000000000 PUSH0 MSTORE PUSH1 0x22 PUSH1 0x4 MSTORE PUSH1 0x24 PUSH0 REVERT JUMPDEST PUSH0 PUSH1 0x2 DUP3 DIV SWAP1 POP PUSH1 0x1 DUP3 AND DUP1 PUSH2 0x22A JUMPI PUSH1 0x7F DUP3 AND SWAP2 POP JUMPDEST PUSH1 0x20 DUP3 LT DUP2 SUB PUSH2 0x23D JUMPI PUSH2 0x23C PUSH2 0x1E6 JUMP JUMPDEST JUMPDEST POP SWAP2 SWAP1 POP JUMP JUMPDEST PUSH0 DUP2 SWAP1 POP DUP2 PUSH0 MSTORE PUSH1 0x20 PUSH0 KECCAK256 SWAP1 POP SWAP2 SWAP1 POP JUMP JUMPDEST PUSH0 PUSH1 0x20 PUSH1 0x1F DUP4 ADD DIV SWAP1 POP SWAP2 SWAP1 POP JUMP JUMPDEST PUSH0 DUP3 DUP3 SHL SWAP1 POP SWAP3 SWAP2 POP POP JUMP JUMPDEST PUSH0 PUSH1 0x8 DUP4 MUL PUSH2 0x29F PUSH32 0xFFFFFFFFFFFFFFFFFFFFFFFFFFFFFFFFFFFFFFFFFFFFFFFFFFFFFFFFFFFFFFFF DUP3 PUSH2 0x264 JUMP JUMPDEST PUSH2 0x2A9 DUP7 DUP4 PUSH2 0x264 JUMP JUMPDEST SWAP6 POP DUP1 NOT DUP5 AND SWAP4 POP DUP1 DUP7 AND DUP5 OR SWAP3 POP POP POP SWAP4 SWAP3 POP POP POP JUMP JUMPDEST PUSH0 DUP2 SWAP1 POP SWAP2 SWAP1 POP JUMP JUMPDEST PUSH0 DUP2 SWAP1 POP SWAP2 SWAP1 POP JUMP JUMPDEST PUSH0 PUSH2 0x2ED PUSH2 0x2E8 PUSH2 0x2E3 DUP5 PUSH2 0x2C1 JUMP JUMPDEST PUSH2 0x2CA JUMP JUMPDEST PUSH2 0x2C1 JUMP JUMPDEST SWAP1 POP SWAP2 SWAP1 POP JUMP JUMPDEST PUSH0 DUP2 SWAP1 POP SWAP2 SWAP1 POP JUMP JUMPDEST PUSH2 0x306 DUP4 PUSH2 0x2D3 JUMP JUMPDEST PUSH2 0x31A PUSH2 0x312 DUP3 PUSH2 0x2F4 JUMP JUMPDEST DUP5 DUP5 SLOAD PUSH2 0x270 JUMP JUMPDEST DUP3 SSTORE POP POP POP POP JUMP JUMPDEST PUSH0 SWAP1 JUMP JUMPDEST PUSH2 0x32E PUSH2 0x322 JUMP JUMPDEST PUSH2 0x339 DUP2 DUP5 DUP5 PUSH2 0x2FD JUMP JUMPDEST POP POP POP JUMP JUMPDEST JUMPDEST DUP2 DUP2 LT ISZERO PUSH2 0x35C JUMPI PUSH2 0x351 PUSH0 DUP3 PUSH2 0x326 JUMP JUMPDEST PUSH1 0x1 DUP2 ADD SWAP1 POP PUSH2 0x33F JUMP JUMPDEST POP POP JUMP JUMPDEST PUSH1 0x1F DUP3 GT ISZERO PUSH2 0x3A1 JUMPI PUSH2 0x372 DUP2 PUSH2 0x243 JUMP JUMPDEST PUSH2 0x37B DUP5 PUSH2 0x255 JUMP JUMPDEST DUP2 ADD PUSH1 0x20 DUP6 LT ISZERO PUSH2 0x38A JUMPI DUP2 SWAP1 POP JUMPDEST PUSH2 0x39E PUSH2 0x396 DUP6 PUSH2 0x255 JUMP JUMPDEST DUP4 ADD DUP3 PUSH2 0x33E JUMP JUMPDEST POP POP JUMPDEST POP POP POP JUMP JUMPDEST PUSH0 DUP3 DUP3 SHR SWAP1 POP SWAP3 SWAP2 POP POP JUMP JUMPDEST PUSH0 PUSH2 0x3C1 PUSH0 NOT DUP5 PUSH1 0x8 MUL PUSH2 0x3A6 JUMP JUMPDEST NOT DUP1 DUP4 AND SWAP2 POP POP SWAP3 SWAP2 POP POP JUMP JUMPDEST PUSH0 PUSH2 0x3D9 DUP4 DUP4 PUSH2 0x3B2 JUMP JUMPDEST SWAP2 POP DUP3 PUSH1 0x2 MUL DUP3 OR SWAP1 POP SWAP3 SWAP2 POP POP JUMP JUMPDEST PUSH2 0x3F2 DUP3 PUSH2 0x1DC JUMP JUMPDEST PUSH8 0xFFFFFFFFFFFFFFFF DUP2 GT ISZERO PUSH2 0x40B JUMPI PUSH2 0x40A PUSH2 0x71 JUMP JUMPDEST JUMPDEST PUSH2 0x415 DUP3 SLOAD PUSH2 0x213 JUMP JUMPDEST PUSH2 0x420 DUP3 DUP3 DUP6 PUSH2 0x360 JUMP JUMPDEST PUSH0 PUSH1 0x20 SWAP1 POP PUSH1 0x1F DUP4 GT PUSH1 0x1 DUP2 EQ PUSH2 0x451 JUMPI PUSH0 DUP5 ISZERO PUSH2 0x43F JUMPI DUP3 DUP8 ADD MLOAD SWAP1 POP JUMPDEST PUSH2 0x449 DUP6 DUP3 PUSH2 0x3CE JUMP JUMPDEST DUP7 SSTORE POP PUSH2 0x4B0 JUMP JUMPDEST PUSH1 0x1F NOT DUP5 AND PUSH2 0x45F DUP7 PUSH2 0x243 JUMP JUMPDEST PUSH0 JUMPDEST DUP3 DUP2 LT ISZERO PUSH2 0x486 JUMPI DUP5 DUP10 ADD MLOAD DUP3 SSTORE PUSH1 0x1 DUP3 ADD SWAP2 POP PUSH1 0x20 DUP6 ADD SWAP5 POP PUSH1 0x20 DUP2 ADD SWAP1 POP PUSH2 0x461 JUMP JUMPDEST DUP7 DUP4 LT ISZERO PUSH2 0x4A3 JUMPI DUP5 DUP10 ADD MLOAD PUSH2 0x49F PUSH1 0x1F DUP10 AND DUP3 PUSH2 0x3B2 JUMP JUMPDEST DUP4 SSTORE POP JUMPDEST PUSH1 0x1 PUSH1 0x2 DUP9 MUL ADD DUP9 SSTORE POP POP POP JUMPDEST POP POP POP POP POP POP JUMP JUMPDEST PUSH2 0x2D5 DUP1 PUSH2 0x4C5 PUSH0 CODECOPY PUSH0 RETURN INVALID PUSH1 0x80 PUSH1 0x40 MSTORE CALLVALUE DUP1 ISZERO PUSH2 0xF JUMPI PUSH0 DUP1 REVERT JUMPDEST POP PUSH1 0x4 CALLDATASIZE LT PUSH2 0x29 JUMPI PUSH0 CALLDATALOAD PUSH1 0xE0 SHR DUP1 PUSH4 0x8FE89EB1 EQ PUSH2 0x2D JUMPI JUMPDEST PUSH0 DUP1 REVERT JUMPDEST PUSH2 0x35 PUSH2 0x4B JUMP JUMPDEST PUSH1 0x40 MLOAD PUSH2 0x42 SWAP2 SWAP1 PUSH2 0x17D JUMP JUMPDEST PUSH1 0x40 MLOAD DUP1 SWAP2 SUB SWAP1 RETURN JUMPDEST PUSH1 0x60 PUSH0 PUSH2 0x56 PUSH2 0x7E JUMP JUMPDEST SWAP1 POP DUP1 PUSH1 0x40 MLOAD PUSH1 0x20 ADD PUSH2 0x69 SWAP2 SWAP1 PUSH2 0x221 JUMP JUMPDEST PUSH1 0x40 MLOAD PUSH1 0x20 DUP2 DUP4 SUB SUB DUP2 MSTORE SWAP1 PUSH1 0x40 MSTORE SWAP2 POP POP SWAP1 JUMP JUMPDEST PUSH1 0x60 PUSH0 DUP1 SLOAD PUSH2 0x8C SWAP1 PUSH2 0x26F JUMP JUMPDEST DUP1 PUSH1 0x1F ADD PUSH1 0x20 DUP1 SWAP2 DIV MUL PUSH1 0x20 ADD PUSH1 0x40 MLOAD SWAP1 DUP2 ADD PUSH1 0x40 MSTORE DUP1 SWAP3 SWAP2 SWAP1 DUP2 DUP2 MSTORE PUSH1 0x20 ADD DUP3 DUP1 SLOAD PUSH2 0xB8 SWAP1 PUSH2 0x26F JUMP JUMPDEST DUP1 ISZERO PUSH2 0x103 JUMPI DUP1 PUSH1 0x1F LT PUSH2 0xDA JUMPI PUSH2 0x100 DUP1 DUP4 SLOAD DIV MUL DUP4 MSTORE SWAP2 PUSH1 0x20 ADD SWAP2 PUSH2 0x103 JUMP JUMPDEST DUP3 ADD SWAP2 SWAP1 PUSH0 MSTORE PUSH1 0x20 PUSH0 KECCAK256 SWAP1 JUMPDEST DUP2 SLOAD DUP2 MSTORE SWAP1 PUSH1 0x1 ADD SWAP1 PUSH1 0x20 ADD DUP1 DUP4 GT PUSH2 0xE6 JUMPI DUP3 SWAP1 SUB PUSH1 0x1F AND DUP3 ADD SWAP2 JUMPDEST POP POP POP POP POP SWAP1 POP SWAP1 JUMP JUMPDEST PUSH0 DUP2 MLOAD SWAP1 POP SWAP2 SWAP1 POP JUMP JUMPDEST PUSH0 DUP3 DUP3 MSTORE PUSH1 0x20 DUP3 ADD SWAP1 POP SWAP3 SWAP2 POP POP JUMP JUMPDEST DUP3 DUP2 DUP4 MCOPY PUSH0 DUP4 DUP4 ADD MSTORE POP POP POP JUMP JUMPDEST PUSH0 PUSH1 0x1F NOT PUSH1 0x1F DUP4 ADD AND SWAP1 POP SWAP2 SWAP1 POP JUMP JUMPDEST PUSH0 PUSH2 0x14F DUP3 PUSH2 0x10D JUMP JUMPDEST PUSH2 0x159 DUP2 DUP6 PUSH2 0x117 JUMP JUMPDEST SWAP4 POP PUSH2 0x169 DUP2 DUP6 PUSH1 0x20 DUP7 ADD PUSH2 0x127 JUMP JUMPDEST PUSH2 0x172 DUP2 PUSH2 0x135 JUMP JUMPDEST DUP5 ADD SWAP2 POP POP SWAP3 SWAP2 POP POP JUMP JUMPDEST PUSH0 PUSH1 0x20 DUP3 ADD SWAP1 POP DUP2 DUP2 SUB PUSH0 DUP4 ADD MSTORE PUSH2 0x195 DUP2 DUP5 PUSH2 0x145 JUMP JUMPDEST SWAP1 POP SWAP3 SWAP2 POP POP JUMP JUMPDEST PUSH0 DUP2 SWAP1 POP SWAP3 SWAP2 POP POP JUMP JUMPDEST PUSH0 PUSH2 0x1B1 DUP3 PUSH2 0x10D JUMP JUMPDEST PUSH2 0x1BB DUP2 DUP6 PUSH2 0x19D JUMP JUMPDEST SWAP4 POP PUSH2 0x1CB DUP2 DUP6 PUSH1 0x20 DUP7 ADD PUSH2 0x127 JUMP JUMPDEST DUP1 DUP5 ADD SWAP2 POP POP SWAP3 SWAP2 POP POP JUMP JUMPDEST PUSH32 0x207920736F792041626F6761646F000000000000000000000000000000000000 PUSH0 DUP3 ADD MSTORE POP JUMP JUMPDEST PUSH0 PUSH2 0x20B PUSH1 0xE DUP4 PUSH2 0x19D JUMP JUMPDEST SWAP2 POP PUSH2 0x216 DUP3 PUSH2 0x1D7 JUMP JUMPDEST PUSH1 0xE DUP3 ADD SWAP1 POP SWAP2 SWAP1 POP JUMP JUMPDEST PUSH0 PUSH2 0x22C DUP3 DUP5 PUSH2 0x1A7 JUMP JUMPDEST SWAP2 POP PUSH2 0x237 DUP3 PUSH2 0x1FF JUMP JUMPDEST SWAP2 POP DUP2 SWAP1 POP SWAP3 SWAP2 POP POP JUMP JUMPDEST PUSH32 0x4E487B7100000000000000000000000000000000000000000000000000000000 PUSH0 MSTORE PUSH1 0x22 PUSH1 0x4 MSTORE PUSH1 0x24 PUSH0 REVERT JUMPDEST PUSH0 PUSH1 0x2 DUP3 DIV SWAP1 POP PUSH1 0x1 DUP3 AND DUP1 PUSH2 0x286 JUMPI PUSH1 0x7F DUP3 AND SWAP2 POP JUMPDEST PUSH1 0x20 DUP3 LT DUP2 SUB PUSH2 0x299 JUMPI PUSH2 0x298 PUSH2 0x242 JUMP JUMPDEST JUMPDEST POP SWAP2 SWAP1 POP JUMP INVALID LOG2 PUSH5 0x6970667358 0x22 SLT KECCAK256 0x27 SWAP12 0x2C DELEGATECALL SWAP12 0xCA 0x22 0xB2 PUSH7 0x820D9A2153C86D STOP DUP14 0xE7 PUSH0 SWAP14 0xCB 0x2B 0xD5 LOG2 PUSH27 0xCACB297EFF1E64736F6C634300081A003300000000000000000000 "
		},
		"gasEstimates": {
			"creation": {
				"codeDepositCost": "145000",
				"executionCost": "infinite",
				"totalCost": "infinite"
			},
			"external": {
				"verDatos()": "infinite"
			}
		},
		"methodIdentifiers": {
			"verDatos()": "8fe89eb1"
		}
	},
	"abi": [
		{
			"inputs": [
				{
					"internalType": "string",
					"name": "_nombre",
					"type": "string"
				}
			],
			"stateMutability": "nonpayable",
			"type": "constructor"
		},
		{
			"inputs": [],
			"name": "verDatos",
			"outputs": [
				{
					"internalType": "string",
					"name": "",
					"type": "string"
				}
			],
			"stateMutability": "view",
			"type": "function"
		}
	]
}