{
	"data": {
		"bytecode": {
			"linkReferences": {},
			"object": "608060405234801561000f575f80fd5b506040518060400160405280600b81526020017f486f6c61206d756e646f210000000000000000000000000000000000000000008152505f908161005391906102da565b503360025f6101000a81548173ffffffffffffffffffffffffffffffffffffffff021916908373ffffffffffffffffffffffffffffffffffffffff160217905550426001819055506103a9565b5f81519050919050565b7f4e487b71000000000000000000000000000000000000000000000000000000005f52604160045260245ffd5b7f4e487b71000000000000000000000000000000000000000000000000000000005f52602260045260245ffd5b5f600282049050600182168061011b57607f821691505b60208210810361012e5761012d6100d7565b5b50919050565b5f819050815f5260205f209050919050565b5f6020601f8301049050919050565b5f82821b905092915050565b5f600883026101907fffffffffffffffffffffffffffffffffffffffffffffffffffffffffffffffff82610155565b61019a8683610155565b95508019841693508086168417925050509392505050565b5f819050919050565b5f819050919050565b5f6101de6101d96101d4846101b2565b6101bb565b6101b2565b9050919050565b5f819050919050565b6101f7836101c4565b61020b610203826101e5565b848454610161565b825550505050565b5f90565b61021f610213565b61022a8184846101ee565b505050565b5b8181101561024d576102425f82610217565b600181019050610230565b5050565b601f8211156102925761026381610134565b61026c84610146565b8101602085101561027b578190505b61028f61028785610146565b83018261022f565b50505b505050565b5f82821c905092915050565b5f6102b25f1984600802610297565b1980831691505092915050565b5f6102ca83836102a3565b9150826002028217905092915050565b6102e3826100a0565b67ffffffffffffffff8111156102fc576102fb6100aa565b5b6103068254610104565b610311828285610251565b5f60209050601f831160018114610342575f8415610330578287015190505b61033a85826102bf565b8655506103a1565b601f19841661035086610134565b5f5b8281101561037757848901518255600182019150602085019450602081019050610352565b868310156103945784890151610390601f8916826102a3565b8355505b6001600288020188555050505b505050505050565b610712806103b65f395ff3fe608060405234801561000f575f80fd5b5060043610610034575f3560e01c80631b3218ea14610038578063376d999714610058575b5f80fd5b610040610074565b60405161004f93929190610253565b60405180910390f35b610072600480360381019061006d91906103cc565b610133565b005b60605f805f60015460025f9054906101000a900473ffffffffffffffffffffffffffffffffffffffff168280546100aa90610440565b80601f01602080910402602001604051908101604052809291908181526020018280546100d690610440565b80156101215780601f106100f857610100808354040283529160200191610121565b820191905f5260205f20905b81548152906001019060200180831161010457829003601f168201915b50505050509250925092509250909192565b805f9081610141919061060d565b503360025f6101000a81548173ffffffffffffffffffffffffffffffffffffffff021916908373ffffffffffffffffffffffffffffffffffffffff1602179055504260018190555050565b5f81519050919050565b5f82825260208201905092915050565b8281835e5f83830152505050565b5f601f19601f8301169050919050565b5f6101ce8261018c565b6101d88185610196565b93506101e88185602086016101a6565b6101f1816101b4565b840191505092915050565b5f819050919050565b61020e816101fc565b82525050565b5f73ffffffffffffffffffffffffffffffffffffffff82169050919050565b5f61023d82610214565b9050919050565b61024d81610233565b82525050565b5f6060820190508181035f83015261026b81866101c4565b905061027a6020830185610205565b6102876040830184610244565b949350505050565b5f604051905090565b5f80fd5b5f80fd5b5f80fd5b5f80fd5b7f4e487b71000000000000000000000000000000000000000000000000000000005f52604160045260245ffd5b6102de826101b4565b810181811067ffffffffffffffff821117156102fd576102fc6102a8565b5b80604052505050565b5f61030f61028f565b905061031b82826102d5565b919050565b5f67ffffffffffffffff82111561033a576103396102a8565b5b610343826101b4565b9050602081019050919050565b828183375f83830152505050565b5f61037061036b84610320565b610306565b90508281526020810184848401111561038c5761038b6102a4565b5b610397848285610350565b509392505050565b5f82601f8301126103b3576103b26102a0565b5b81356103c384826020860161035e565b91505092915050565b5f602082840312156103e1576103e0610298565b5b5f82013567ffffffffffffffff8111156103fe576103fd61029c565b5b61040a8482850161039f565b91505092915050565b7f4e487b71000000000000000000000000000000000000000000000000000000005f52602260045260245ffd5b5f600282049050600182168061045757607f821691505b60208210810361046a57610469610413565b5b50919050565b5f819050815f5260205f209050919050565b5f6020601f8301049050919050565b5f82821b905092915050565b5f600883026104cc7fffffffffffffffffffffffffffffffffffffffffffffffffffffffffffffffff82610491565b6104d68683610491565b95508019841693508086168417925050509392505050565b5f819050919050565b5f61051161050c610507846101fc565b6104ee565b6101fc565b9050919050565b5f819050919050565b61052a836104f7565b61053e61053682610518565b84845461049d565b825550505050565b5f90565b610552610546565b61055d818484610521565b505050565b5b81811015610580576105755f8261054a565b600181019050610563565b5050565b601f8211156105c55761059681610470565b61059f84610482565b810160208510156105ae578190505b6105c26105ba85610482565b830182610562565b50505b505050565b5f82821c905092915050565b5f6105e55f19846008026105ca565b1980831691505092915050565b5f6105fd83836105d6565b9150826002028217905092915050565b6106168261018c565b67ffffffffffffffff81111561062f5761062e6102a8565b5b6106398254610440565b610644828285610584565b5f60209050601f831160018114610675575f8415610663578287015190505b61066d85826105f2565b8655506106d4565b601f19841661068386610470565b5f5b828110156106aa57848901518255600182019150602085019450602081019050610685565b868310156106c757848901516106c3601f8916826105d6565b8355505b6001600288020188555050505b50505050505056fea2646970667358221220c9809b470bac5aa40d30f0dd81d32b340700fef5d3a9839a80c782c364e9907864736f6c634300081a0033",
			"opcodes": "PUSH1 0x80 PUSH1 0x40 MSTORE CALLVALUE DUP1 ISZERO PUSH2 0xF JUMPI PUSH0 DUP1 REVERT JUMPDEST POP PUSH1 0x40 MLOAD DUP1 PUSH1 0x40 ADD PUSH1 0x40 MSTORE DUP1 PUSH1 0xB DUP2 MSTORE PUSH1 0x20 ADD PUSH32 0x486F6C61206D756E646F21000000000000000000000000000000000000000000 DUP2 MSTORE POP PUSH0 SWAP1 DUP2 PUSH2 0x53 SWAP2 SWAP1 PUSH2 0x2DA JUMP JUMPDEST POP CALLER PUSH1 0x2 PUSH0 PUSH2 0x100 EXP DUP2 SLOAD DUP2 PUSH20 0xFFFFFFFFFFFFFFFFFFFFFFFFFFFFFFFFFFFFFFFF MUL NOT AND SWAP1 DUP4 PUSH20 0xFFFFFFFFFFFFFFFFFFFFFFFFFFFFFFFFFFFFFFFF AND MUL OR SWAP1 SSTORE POP TIMESTAMP PUSH1 0x1 DUP2 SWAP1 SSTORE POP PUSH2 0x3A9 JUMP JUMPDEST PUSH0 DUP2 MLOAD SWAP1 POP SWAP2 SWAP1 POP JUMP JUMPDEST PUSH32 0x4E487B7100000000000000000000000000000000000000000000000000000000 PUSH0 MSTORE PUSH1 0x41 PUSH1 0x4 MSTORE PUSH1 0x24 PUSH0 REVERT JUMPDEST PUSH32 0x4E487B7100000000000000000000000000000000000000000000000000000000 PUSH0 MSTORE PUSH1 0x22 PUSH1 0x4 MSTORE PUSH1 0x24 PUSH0 REVERT JUMPDEST PUSH0 PUSH1 0x2 DUP3 DIV SWAP1 POP PUSH1 0x1 DUP3 AND DUP1 PUSH2 0x11B JUMPI PUSH1 0x7F DUP3 AND SWAP2 POP JUMPDEST PUSH1 0x20 DUP3 LT DUP2 SUB PUSH2 0x12E JUMPI PUSH2 0x12D PUSH2 0xD7 JUMP JUMPDEST JUMPDEST POP SWAP2 SWAP1 POP JUMP JUMPDEST PUSH0 DUP2 SWAP1 POP DUP2 PUSH0 MSTORE PUSH1 0x20 PUSH0 KECCAK256 SWAP1 POP SWAP2 SWAP1 POP JUMP JUMPDEST PUSH0 PUSH1 0x20 PUSH1 0x1F DUP4 ADD DIV SWAP1 POP SWAP2 SWAP1 POP JUMP JUMPDEST PUSH0 DUP3 DUP3 SHL SWAP1 POP SWAP3 SWAP2 POP POP JUMP JUMPDEST PUSH0 PUSH1 0x8 DUP4 MUL PUSH2 0x190 PUSH32 0xFFFFFFFFFFFFFFFFFFFFFFFFFFFFFFFFFFFFFFFFFFFFFFFFFFFFFFFFFFFFFFFF DUP3 PUSH2 0x155 JUMP JUMPDEST PUSH2 0x19A DUP7 DUP4 PUSH2 0x155 JUMP JUMPDEST SWAP6 POP DUP1 NOT DUP5 AND SWAP4 POP DUP1 DUP7 AND DUP5 OR SWAP3 POP POP POP SWAP4 SWAP3 POP POP POP JUMP JUMPDEST PUSH0 DUP2 SWAP1 POP SWAP2 SWAP1 POP JUMP JUMPDEST PUSH0 DUP2 SWAP1 POP SWAP2 SWAP1 POP JUMP JUMPDEST PUSH0 PUSH2 0x1DE PUSH2 0x1D9 PUSH2 0x1D4 DUP5 PUSH2 0x1B2 JUMP JUMPDEST PUSH2 0x1BB JUMP JUMPDEST PUSH2 0x1B2 JUMP JUMPDEST SWAP1 POP SWAP2 SWAP1 POP JUMP JUMPDEST PUSH0 DUP2 SWAP1 POP SWAP2 SWAP1 POP JUMP JUMPDEST PUSH2 0x1F7 DUP4 PUSH2 0x1C4 JUMP JUMPDEST PUSH2 0x20B PUSH2 0x203 DUP3 PUSH2 0x1E5 JUMP JUMPDEST DUP5 DUP5 SLOAD PUSH2 0x161 JUMP JUMPDEST DUP3 SSTORE POP POP POP POP JUMP JUMPDEST PUSH0 SWAP1 JUMP JUMPDEST PUSH2 0x21F PUSH2 0x213 JUMP JUMPDEST PUSH2 0x22A DUP2 DUP5 DUP5 PUSH2 0x1EE JUMP JUMPDEST POP POP POP JUMP JUMPDEST JUMPDEST DUP2 DUP2 LT ISZERO PUSH2 0x24D JUMPI PUSH2 0x242 PUSH0 DUP3 PUSH2 0x217 JUMP JUMPDEST PUSH1 0x1 DUP2 ADD SWAP1 POP PUSH2 0x230 JUMP JUMPDEST POP POP JUMP JUMPDEST PUSH1 0x1F DUP3 GT ISZERO PUSH2 0x292 JUMPI PUSH2 0x263 DUP2 PUSH2 0x134 JUMP JUMPDEST PUSH2 0x26C DUP5 PUSH2 0x146 JUMP JUMPDEST DUP2 ADD PUSH1 0x20 DUP6 LT ISZERO PUSH2 0x27B JUMPI DUP2 SWAP1 POP JUMPDEST PUSH2 0x28F PUSH2 0x287 DUP6 PUSH2 0x146 JUMP JUMPDEST DUP4 ADD DUP3 PUSH2 0x22F JUMP JUMPDEST POP POP JUMPDEST POP POP POP JUMP JUMPDEST PUSH0 DUP3 DUP3 SHR SWAP1 POP SWAP3 SWAP2 POP POP JUMP JUMPDEST PUSH0 PUSH2 0x2B2 PUSH0 NOT DUP5 PUSH1 0x8 MUL PUSH2 0x297 JUMP JUMPDEST NOT DUP1 DUP4 AND SWAP2 POP POP SWAP3 SWAP2 POP POP JUMP JUMPDEST PUSH0 PUSH2 0x2CA DUP4 DUP4 PUSH2 0x2A3 JUMP JUMPDEST SWAP2 POP DUP3 PUSH1 0x2 MUL DUP3 OR SWAP1 POP SWAP3 SWAP2 POP POP JUMP JUMPDEST PUSH2 0x2E3 DUP3 PUSH2 0xA0 JUMP JUMPDEST PUSH8 0xFFFFFFFFFFFFFFFF DUP2 GT ISZERO PUSH2 0x2FC JUMPI PUSH2 0x2FB PUSH2 0xAA JUMP JUMPDEST JUMPDEST PUSH2 0x306 DUP3 SLOAD PUSH2 0x104 JUMP JUMPDEST PUSH2 0x311 DUP3 DUP3 DUP6 PUSH2 0x251 JUMP JUMPDEST PUSH0 PUSH1 0x20 SWAP1 POP PUSH1 0x1F DUP4 GT PUSH1 0x1 DUP2 EQ PUSH2 0x342 JUMPI PUSH0 DUP5 ISZERO PUSH2 0x330 JUMPI DUP3 DUP8 ADD MLOAD SWAP1 POP JUMPDEST PUSH2 0x33A DUP6 DUP3 PUSH2 0x2BF JUMP JUMPDEST DUP7 SSTORE POP PUSH2 0x3A1 JUMP JUMPDEST PUSH1 0x1F NOT DUP5 AND PUSH2 0x350 DUP7 PUSH2 0x134 JUMP JUMPDEST PUSH0 JUMPDEST DUP3 DUP2 LT ISZERO PUSH2 0x377 JUMPI DUP5 DUP10 ADD MLOAD DUP3 SSTORE PUSH1 0x1 DUP3 ADD SWAP2 POP PUSH1 0x20 DUP6 ADD SWAP5 POP PUSH1 0x20 DUP2 ADD SWAP1 POP PUSH2 0x352 JUMP JUMPDEST DUP7 DUP4 LT ISZERO PUSH2 0x394 JUMPI DUP5 DUP10 ADD MLOAD PUSH2 0x390 PUSH1 0x1F DUP10 AND DUP3 PUSH2 0x2A3 JUMP JUMPDEST DUP4 SSTORE POP JUMPDEST PUSH1 0x1 PUSH1 0x2 DUP9 MUL ADD DUP9 SSTORE POP POP POP JUMPDEST POP POP POP POP POP POP JUMP JUMPDEST PUSH2 0x712 DUP1 PUSH2 0x3B6 PUSH0 CODECOPY PUSH0 RETURN INVALID PUSH1 0x80 PUSH1 0x40 MSTORE CALLVALUE DUP1 ISZERO PUSH2 0xF JUMPI PUSH0 DUP1 REVERT JUMPDEST POP PUSH1 0x4 CALLDATASIZE LT PUSH2 0x34 JUMPI PUSH0 CALLDATALOAD PUSH1 0xE0 SHR DUP1 PUSH4 0x1B3218EA EQ PUSH2 0x38 JUMPI DUP1 PUSH4 0x376D9997 EQ PUSH2 0x58 JUMPI JUMPDEST PUSH0 DUP1 REVERT JUMPDEST PUSH2 0x40 PUSH2 0x74 JUMP JUMPDEST PUSH1 0x40 MLOAD PUSH2 0x4F SWAP4 SWAP3 SWAP2 SWAP1 PUSH2 0x253 JUMP JUMPDEST PUSH1 0x40 MLOAD DUP1 SWAP2 SUB SWAP1 RETURN JUMPDEST PUSH2 0x72 PUSH1 0x4 DUP1 CALLDATASIZE SUB DUP2 ADD SWAP1 PUSH2 0x6D SWAP2 SWAP1 PUSH2 0x3CC JUMP JUMPDEST PUSH2 0x133 JUMP JUMPDEST STOP JUMPDEST PUSH1 0x60 PUSH0 DUP1 PUSH0 PUSH1 0x1 SLOAD PUSH1 0x2 PUSH0 SWAP1 SLOAD SWAP1 PUSH2 0x100 EXP SWAP1 DIV PUSH20 0xFFFFFFFFFFFFFFFFFFFFFFFFFFFFFFFFFFFFFFFF AND DUP3 DUP1 SLOAD PUSH2 0xAA SWAP1 PUSH2 0x440 JUMP JUMPDEST DUP1 PUSH1 0x1F ADD PUSH1 0x20 DUP1 SWAP2 DIV MUL PUSH1 0x20 ADD PUSH1 0x40 MLOAD SWAP1 DUP2 ADD PUSH1 0x40 MSTORE DUP1 SWAP3 SWAP2 SWAP1 DUP2 DUP2 MSTORE PUSH1 0x20 ADD DUP3 DUP1 SLOAD PUSH2 0xD6 SWAP1 PUSH2 0x440 JUMP JUMPDEST DUP1 ISZERO PUSH2 0x121 JUMPI DUP1 PUSH1 0x1F LT PUSH2 0xF8 JUMPI PUSH2 0x100 DUP1 DUP4 SLOAD DIV MUL DUP4 MSTORE SWAP2 PUSH1 0x20 ADD SWAP2 PUSH2 0x121 JUMP JUMPDEST DUP3 ADD SWAP2 SWAP1 PUSH0 MSTORE PUSH1 0x20 PUSH0 KECCAK256 SWAP1 JUMPDEST DUP2 SLOAD DUP2 MSTORE SWAP1 PUSH1 0x1 ADD SWAP1 PUSH1 0x20 ADD DUP1 DUP4 GT PUSH2 0x104 JUMPI DUP3 SWAP1 SUB PUSH1 0x1F AND DUP3 ADD SWAP2 JUMPDEST POP POP POP POP POP SWAP3 POP SWAP3 POP SWAP3 POP SWAP3 POP SWAP1 SWAP2 SWAP3 JUMP JUMPDEST DUP1 PUSH0 SWAP1 DUP2 PUSH2 0x141 SWAP2 SWAP1 PUSH2 0x60D JUMP JUMPDEST POP CALLER PUSH1 0x2 PUSH0 PUSH2 0x100 EXP DUP2 SLOAD DUP2 PUSH20 0xFFFFFFFFFFFFFFFFFFFFFFFFFFFFFFFFFFFFFFFF MUL NOT AND SWAP1 DUP4 PUSH20 0xFFFFFFFFFFFFFFFFFFFFFFFFFFFFFFFFFFFFFFFF AND MUL OR SWAP1 SSTORE POP TIMESTAMP PUSH1 0x1 DUP2 SWAP1 SSTORE POP POP JUMP JUMPDEST PUSH0 DUP2 MLOAD SWAP1 POP SWAP2 SWAP1 POP JUMP JUMPDEST PUSH0 DUP3 DUP3 MSTORE PUSH1 0x20 DUP3 ADD SWAP1 POP SWAP3 SWAP2 POP POP JUMP JUMPDEST DUP3 DUP2 DUP4 MCOPY PUSH0 DUP4 DUP4 ADD MSTORE POP POP POP JUMP JUMPDEST PUSH0 PUSH1 0x1F NOT PUSH1 0x1F DUP4 ADD AND SWAP1 POP SWAP2 SWAP1 POP JUMP JUMPDEST PUSH0 PUSH2 0x1CE DUP3 PUSH2 0x18C JUMP JUMPDEST PUSH2 0x1D8 DUP2 DUP6 PUSH2 0x196 JUMP JUMPDEST SWAP4 POP PUSH2 0x1E8 DUP2 DUP6 PUSH1 0x20 DUP7 ADD PUSH2 0x1A6 JUMP JUMPDEST PUSH2 0x1F1 DUP2 PUSH2 0x1B4 JUMP JUMPDEST DUP5 ADD SWAP2 POP POP SWAP3 SWAP2 POP POP JUMP JUMPDEST PUSH0 DUP2 SWAP1 POP SWAP2 SWAP1 POP JUMP JUMPDEST PUSH2 0x20E DUP2 PUSH2 0x1FC JUMP JUMPDEST DUP3 MSTORE POP POP JUMP JUMPDEST PUSH0 PUSH20 0xFFFFFFFFFFFFFFFFFFFFFFFFFFFFFFFFFFFFFFFF DUP3 AND SWAP1 POP SWAP2 SWAP1 POP JUMP JUMPDEST PUSH0 PUSH2 0x23D DUP3 PUSH2 0x214 JUMP JUMPDEST SWAP1 POP SWAP2 SWAP1 POP JUMP JUMPDEST PUSH2 0x24D DUP2 PUSH2 0x233 JUMP JUMPDEST DUP3 MSTORE POP POP JUMP JUMPDEST PUSH0 PUSH1 0x60 DUP3 ADD SWAP1 POP DUP2 DUP2 SUB PUSH0 DUP4 ADD MSTORE PUSH2 0x26B DUP2 DUP7 PUSH2 0x1C4 JUMP JUMPDEST SWAP1 POP PUSH2 0x27A PUSH1 0x20 DUP4 ADD DUP6 PUSH2 0x205 JUMP JUMPDEST PUSH2 0x287 PUSH1 0x40 DUP4 ADD DUP5 PUSH2 0x244 JUMP JUMPDEST SWAP5 SWAP4 POP POP POP POP JUMP JUMPDEST PUSH0 PUSH1 0x40 MLOAD SWAP1 POP SWAP1 JUMP JUMPDEST PUSH0 DUP1 REVERT JUMPDEST PUSH0 DUP1 REVERT JUMPDEST PUSH0 DUP1 REVERT JUMPDEST PUSH0 DUP1 REVERT JUMPDEST PUSH32 0x4E487B7100000000000000000000000000000000000000000000000000000000 PUSH0 MSTORE PUSH1 0x41 PUSH1 0x4 MSTORE PUSH1 0x24 PUSH0 REVERT JUMPDEST PUSH2 0x2DE DUP3 PUSH2 0x1B4 JUMP JUMPDEST DUP2 ADD DUP2 DUP2 LT PUSH8 0xFFFFFFFFFFFFFFFF DUP3 GT OR ISZERO PUSH2 0x2FD JUMPI PUSH2 0x2FC PUSH2 0x2A8 JUMP JUMPDEST JUMPDEST DUP1 PUSH1 0x40 MSTORE POP POP POP JUMP JUMPDEST PUSH0 PUSH2 0x30F PUSH2 0x28F JUMP JUMPDEST SWAP1 POP PUSH2 0x31B DUP3 DUP3 PUSH2 0x2D5 JUMP JUMPDEST SWAP2 SWAP1 POP JUMP JUMPDEST PUSH0 PUSH8 0xFFFFFFFFFFFFFFFF DUP3 GT ISZERO PUSH2 0x33A JUMPI PUSH2 0x339 PUSH2 0x2A8 JUMP JUMPDEST JUMPDEST PUSH2 0x343 DUP3 PUSH2 0x1B4 JUMP JUMPDEST SWAP1 POP PUSH1 0x20 DUP2 ADD SWAP1 POP SWAP2 SWAP1 POP JUMP JUMPDEST DUP3 DUP2 DUP4 CALLDATACOPY PUSH0 DUP4 DUP4 ADD MSTORE POP POP POP JUMP JUMPDEST PUSH0 PUSH2 0x370 PUSH2 0x36B DUP5 PUSH2 0x320 JUMP JUMPDEST PUSH2 0x306 JUMP JUMPDEST SWAP1 POP DUP3 DUP2 MSTORE PUSH1 0x20 DUP2 ADD DUP5 DUP5 DUP5 ADD GT ISZERO PUSH2 0x38C JUMPI PUSH2 0x38B PUSH2 0x2A4 JUMP JUMPDEST JUMPDEST PUSH2 0x397 DUP5 DUP3 DUP6 PUSH2 0x350 JUMP JUMPDEST POP SWAP4 SWAP3 POP POP POP JUMP JUMPDEST PUSH0 DUP3 PUSH1 0x1F DUP4 ADD SLT PUSH2 0x3B3 JUMPI PUSH2 0x3B2 PUSH2 0x2A0 JUMP JUMPDEST JUMPDEST DUP2 CALLDATALOAD PUSH2 0x3C3 DUP5 DUP3 PUSH1 0x20 DUP7 ADD PUSH2 0x35E JUMP JUMPDEST SWAP2 POP POP SWAP3 SWAP2 POP POP JUMP JUMPDEST PUSH0 PUSH1 0x20 DUP3 DUP5 SUB SLT ISZERO PUSH2 0x3E1 JUMPI PUSH2 0x3E0 PUSH2 0x298 JUMP JUMPDEST JUMPDEST PUSH0 DUP3 ADD CALLDATALOAD PUSH8 0xFFFFFFFFFFFFFFFF DUP2 GT ISZERO PUSH2 0x3FE JUMPI PUSH2 0x3FD PUSH2 0x29C JUMP JUMPDEST JUMPDEST PUSH2 0x40A DUP5 DUP3 DUP6 ADD PUSH2 0x39F JUMP JUMPDEST SWAP2 POP POP SWAP3 SWAP2 POP POP JUMP JUMPDEST PUSH32 0x4E487B7100000000000000000000000000000000000000000000000000000000 PUSH0 MSTORE PUSH1 0x22 PUSH1 0x4 MSTORE PUSH1 0x24 PUSH0 REVERT JUMPDEST PUSH0 PUSH1 0x2 DUP3 DIV SWAP1 POP PUSH1 0x1 DUP3 AND DUP1 PUSH2 0x457 JUMPI PUSH1 0x7F DUP3 AND SWAP2 POP JUMPDEST PUSH1 0x20 DUP3 LT DUP2 SUB PUSH2 0x46A JUMPI PUSH2 0x469 PUSH2 0x413 JUMP JUMPDEST JUMPDEST POP SWAP2 SWAP1 POP JUMP JUMPDEST PUSH0 DUP2 SWAP1 POP DUP2 PUSH0 MSTORE PUSH1 0x20 PUSH0 KECCAK256 SWAP1 POP SWAP2 SWAP1 POP JUMP JUMPDEST PUSH0 PUSH1 0x20 PUSH1 0x1F DUP4 ADD DIV SWAP1 POP SWAP2 SWAP1 POP JUMP JUMPDEST PUSH0 DUP3 DUP3 SHL SWAP1 POP SWAP3 SWAP2 POP POP JUMP JUMPDEST PUSH0 PUSH1 0x8 DUP4 MUL PUSH2 0x4CC PUSH32 0xFFFFFFFFFFFFFFFFFFFFFFFFFFFFFFFFFFFFFFFFFFFFFFFFFFFFFFFFFFFFFFFF DUP3 PUSH2 0x491 JUMP JUMPDEST PUSH2 0x4D6 DUP7 DUP4 PUSH2 0x491 JUMP JUMPDEST SWAP6 POP DUP1 NOT DUP5 AND SWAP4 POP DUP1 DUP7 AND DUP5 OR SWAP3 POP POP POP SWAP4 SWAP3 POP POP POP JUMP JUMPDEST PUSH0 DUP2 SWAP1 POP SWAP2 SWAP1 POP JUMP JUMPDEST PUSH0 PUSH2 0x511 PUSH2 0x50C PUSH2 0x507 DUP5 PUSH2 0x1FC JUMP JUMPDEST PUSH2 0x4EE JUMP JUMPDEST PUSH2 0x1FC JUMP JUMPDEST SWAP1 POP SWAP2 SWAP1 POP JUMP JUMPDEST PUSH0 DUP2 SWAP1 POP SWAP2 SWAP1 POP JUMP JUMPDEST PUSH2 0x52A DUP4 PUSH2 0x4F7 JUMP JUMPDEST PUSH2 0x53E PUSH2 0x536 DUP3 PUSH2 0x518 JUMP JUMPDEST DUP5 DUP5 SLOAD PUSH2 0x49D JUMP JUMPDEST DUP3 SSTORE POP POP POP POP JUMP JUMPDEST PUSH0 SWAP1 JUMP JUMPDEST PUSH2 0x552 PUSH2 0x546 JUMP JUMPDEST PUSH2 0x55D DUP2 DUP5 DUP5 PUSH2 0x521 JUMP JUMPDEST POP POP POP JUMP JUMPDEST JUMPDEST DUP2 DUP2 LT ISZERO PUSH2 0x580 JUMPI PUSH2 0x575 PUSH0 DUP3 PUSH2 0x54A JUMP JUMPDEST PUSH1 0x1 DUP2 ADD SWAP1 POP PUSH2 0x563 JUMP JUMPDEST POP POP JUMP JUMPDEST PUSH1 0x1F DUP3 GT ISZERO PUSH2 0x5C5 JUMPI PUSH2 0x596 DUP2 PUSH2 0x470 JUMP JUMPDEST PUSH2 0x59F DUP5 PUSH2 0x482 JUMP JUMPDEST DUP2 ADD PUSH1 0x20 DUP6 LT ISZERO PUSH2 0x5AE JUMPI DUP2 SWAP1 POP JUMPDEST PUSH2 0x5C2 PUSH2 0x5BA DUP6 PUSH2 0x482 JUMP JUMPDEST DUP4 ADD DUP3 PUSH2 0x562 JUMP JUMPDEST POP POP JUMPDEST POP POP POP JUMP JUMPDEST PUSH0 DUP3 DUP3 SHR SWAP1 POP SWAP3 SWAP2 POP POP JUMP JUMPDEST PUSH0 PUSH2 0x5E5 PUSH0 NOT DUP5 PUSH1 0x8 MUL PUSH2 0x5CA JUMP JUMPDEST NOT DUP1 DUP4 AND SWAP2 POP POP SWAP3 SWAP2 POP POP JUMP JUMPDEST PUSH0 PUSH2 0x5FD DUP4 DUP4 PUSH2 0x5D6 JUMP JUMPDEST SWAP2 POP DUP3 PUSH1 0x2 MUL DUP3 OR SWAP1 POP SWAP3 SWAP2 POP POP JUMP JUMPDEST PUSH2 0x616 DUP3 PUSH2 0x18C JUMP JUMPDEST PUSH8 0xFFFFFFFFFFFFFFFF DUP2 GT ISZERO PUSH2 0x62F JUMPI PUSH2 0x62E PUSH2 0x2A8 JUMP JUMPDEST JUMPDEST PUSH2 0x639 DUP3 SLOAD PUSH2 0x440 JUMP JUMPDEST PUSH2 0x644 DUP3 DUP3 DUP6 PUSH2 0x584 JUMP JUMPDEST PUSH0 PUSH1 0x20 SWAP1 POP PUSH1 0x1F DUP4 GT PUSH1 0x1 DUP2 EQ PUSH2 0x675 JUMPI PUSH0 DUP5 ISZERO PUSH2 0x663 JUMPI DUP3 DUP8 ADD MLOAD SWAP1 POP JUMPDEST PUSH2 0x66D DUP6 DUP3 PUSH2 0x5F2 JUMP JUMPDEST DUP7 SSTORE POP PUSH2 0x6D4 JUMP JUMPDEST PUSH1 0x1F NOT DUP5 AND PUSH2 0x683 DUP7 PUSH2 0x470 JUMP JUMPDEST PUSH0 JUMPDEST DUP3 DUP2 LT ISZERO PUSH2 0x6AA JUMPI DUP5 DUP10 ADD MLOAD DUP3 SSTORE PUSH1 0x1 DUP3 ADD SWAP2 POP PUSH1 0x20 DUP6 ADD SWAP5 POP PUSH1 0x20 DUP2 ADD SWAP1 POP PUSH2 0x685 JUMP JUMPDEST DUP7 DUP4 LT ISZERO PUSH2 0x6C7 JUMPI DUP5 DUP10 ADD MLOAD PUSH2 0x6C3 PUSH1 0x1F DUP10 AND DUP3 PUSH2 0x5D6 JUMP JUMPDEST DUP4 SSTORE POP JUMPDEST PUSH1 0x1 PUSH1 0x2 DUP9 MUL ADD DUP9 SSTORE POP POP POP JUMPDEST POP POP POP POP POP POP JUMP INVALID LOG2 PUSH5 0x6970667358 0x22 SLT KECCAK256 0xC9 DUP1 SWAP12 SELFBALANCE SIGNEXTEND 0xAC GAS LOG4 0xD ADDRESS CREATE 0xDD DUP2 0xD3 0x2B CALLVALUE SMOD STOP INVALID CREATE2 0xD3 0xA9 DUP4 SWAP11 DUP1 0xC7 DUP3 0xC3 PUSH5 0xE990786473 PUSH16 0x6C634300081A00330000000000000000 "
		},
		"gasEstimates": {
			"creation": {
				"codeDepositCost": "362000",
				"executionCost": "infinite",
				"totalCost": "infinite"
			},
			"external": {
				"guardarMensaje(string)": "infinite",
				"verMensaje()": "infinite"
			}
		},
		"methodIdentifiers": {
			"guardarMensaje(string)": "376d9997",
			"verMensaje()": "1b3218ea"
		}
	},
	"abi": [
		{
			"inputs": [],
			"stateMutability": "nonpayable",
			"type": "constructor"
		},
		{
			"inputs": [
				{
					"internalType": "string",
					"name": "nuevoMensaje",
					"type": "string"
				}
			],
			"name": "guardarMensaje",
			"outputs": [],
			"stateMutability": "nonpayable",
			"type": "function"
		},
		{
			"inputs": [],
			"name": "verMensaje",
			"outputs": [
				{
					"internalType": "string",
					"name": "",
					"type": "string"
				},
				{
					"internalType": "uint256",
					"name": "",
					"type": "uint256"
				},
				{
					"internalType": "address",
					"name": "",
					"type": "address"
				}
			],
			"stateMutability": "view",
			"type": "function"
		}
	]
}