{
	"data": {
		"bytecode": {
			"linkReferences": {},
			"object": "6080604052348015600e575f80fd5b506108988061001c5f395ff3fe608060405234801561000f575f80fd5b506004361061004a575f3560e01c80630a79309b1461004e57806330a4708c1461007e578063acb069a31461009a578063d312ce52146100b6575b5f80fd5b61006860048036038101906100639190610461565b6100d2565b60405161007591906104a4565b60405180910390f35b610098600480360381019061009391906104e7565b610221565b005b6100b460048036038101906100af9190610661565b610318565b005b6100d060048036038101906100cb91906104e7565b610387565b005b5f805f8373ffffffffffffffffffffffffffffffffffffffff166040516024016040516020818303038152906040527f2e64cec1000000000000000000000000000000000000000000000000000000007bffffffffffffffffffffffffffffffffffffffffffffffffffffffff19166020820180517bffffffffffffffffffffffffffffffffffffffffffffffffffffffff838183161783525050505060405161017c919061070d565b5f604051808303815f865af19150503d805f81146101b5576040519150601f19603f3d011682016040523d82523d5f602084013e6101ba565b606091505b5091509150816101ff576040517f08c379a00000000000000000000000000000000000000000000000000000000081526004016101f6906107a3565b60405180910390fd5b5f8180602001905181019061021491906107d5565b9050809350505050919050565b8073ffffffffffffffffffffffffffffffffffffffff168260405160240161024991906104a4565b6040516020818303038152906040527f6057361d000000000000000000000000000000000000000000000000000000007bffffffffffffffffffffffffffffffffffffffffffffffffffffffff19166020820180517bffffffffffffffffffffffffffffffffffffffffffffffffffffffff83818316178352505050506040516102d3919061070d565b5f604051808303815f865af19150503d805f811461030c576040519150601f19603f3d011682016040523d82523d5f602084013e610311565b606091505b5050505050565b5f8190508073ffffffffffffffffffffffffffffffffffffffff1663376d9997846040518263ffffffff1660e01b81526004016103559190610842565b5f604051808303815f87803b15801561036c575f80fd5b505af115801561037e573d5f803e3d5ffd5b50505050505050565b5f8190508073ffffffffffffffffffffffffffffffffffffffff16636057361d846040518263ffffffff1660e01b81526004016103c491906104a4565b5f604051808303815f87803b1580156103db575f80fd5b505af11580156103ed573d5f803e3d5ffd5b50505050505050565b5f604051905090565b5f80fd5b5f80fd5b5f73ffffffffffffffffffffffffffffffffffffffff82169050919050565b5f61043082610407565b9050919050565b61044081610426565b811461044a575f80fd5b50565b5f8135905061045b81610437565b92915050565b5f60208284031215610476576104756103ff565b5b5f6104838482850161044d565b91505092915050565b5f819050919050565b61049e8161048c565b82525050565b5f6020820190506104b75f830184610495565b92915050565b6104c68161048c565b81146104d0575f80fd5b50565b5f813590506104e1816104bd565b92915050565b5f80604083850312156104fd576104fc6103ff565b5b5f61050a858286016104d3565b925050602061051b8582860161044d565b9150509250929050565b5f80fd5b5f80fd5b5f601f19601f8301169050919050565b7f4e487b71000000000000000000000000000000000000000000000000000000005f52604160045260245ffd5b6105738261052d565b810181811067ffffffffffffffff821117156105925761059161053d565b5b80604052505050565b5f6105a46103f6565b90506105b0828261056a565b919050565b5f67ffffffffffffffff8211156105cf576105ce61053d565b5b6105d88261052d565b9050602081019050919050565b828183375f83830152505050565b5f610605610600846105b5565b61059b565b90508281526020810184848401111561062157610620610529565b5b61062c8482856105e5565b509392505050565b5f82601f83011261064857610647610525565b5b81356106588482602086016105f3565b91505092915050565b5f8060408385031215610677576106766103ff565b5b5f83013567ffffffffffffffff81111561069457610693610403565b5b6106a085828601610634565b92505060206106b18582860161044d565b9150509250929050565b5f81519050919050565b5f81905092915050565b8281835e5f83830152505050565b5f6106e7826106bb565b6106f181856106c5565b93506107018185602086016106cf565b80840191505092915050565b5f61071882846106dd565b915081905092915050565b5f82825260208201905092915050565b7f4e6f2066756e63696f6e6f206c61206c6c616d6164612065787465726e6120645f8201527f6520726574726965766500000000000000000000000000000000000000000000602082015250565b5f61078d602a83610723565b915061079882610733565b604082019050919050565b5f6020820190508181035f8301526107ba81610781565b9050919050565b5f815190506107cf816104bd565b92915050565b5f602082840312156107ea576107e96103ff565b5b5f6107f7848285016107c1565b91505092915050565b5f81519050919050565b5f61081482610800565b61081e8185610723565b935061082e8185602086016106cf565b6108378161052d565b840191505092915050565b5f6020820190508181035f83015261085a818461080a565b90509291505056fea264697066735822122025d2546fb700332779c0a1862c34479ed85e1936e9a9ad0e6b0aa04f22788e2e64736f6c634300081a0033",
			"opcodes": "PUSH1 0x80 PUSH1 0x40 MSTORE CALLVALUE DUP1 ISZERO PUSH1 0xE JUMPI PUSH0 DUP1 REVERT JUMPDEST POP PUSH2 0x898 DUP1 PUSH2 0x1C PUSH0 CODECOPY PUSH0 RETURN INVALID PUSH1 0x80 PUSH1 0x40 MSTORE CALLVALUE DUP1 ISZERO PUSH2 0xF JUMPI PUSH0 DUP1 REVERT JUMPDEST POP PUSH1 0x4 CALLDATASIZE LT PUSH2 0x4A JUMPI PUSH0 CALLDATALOAD PUSH1 0xE0 SHR DUP1 PUSH4 0xA79309B EQ PUSH2 0x4E JUMPI DUP1 PUSH4 0x30A4708C EQ PUSH2 0x7E JUMPI DUP1 PUSH4 0xACB069A3 EQ PUSH2 0x9A JUMPI DUP1 PUSH4 0xD312CE52 EQ PUSH2 0xB6 JUMPI JUMPDEST PUSH0 DUP1 REVERT JUMPDEST PUSH2 0x68 PUSH1 0x4 DUP1 CALLDATASIZE SUB DUP2 ADD SWAP1 PUSH2 0x63 SWAP2 SWAP1 PUSH2 0x461 JUMP JUMPDEST PUSH2 0xD2 JUMP JUMPDEST PUSH1 0x40 MLOAD PUSH2 0x75 SWAP2 SWAP1 PUSH2 0x4A4 JUMP JUMPDEST PUSH1 0x40 MLOAD DUP1 SWAP2 SUB SWAP1 RETURN JUMPDEST PUSH2 0x98 PUSH1 0x4 DUP1 CALLDATASIZE SUB DUP2 ADD SWAP1 PUSH2 0x93 SWAP2 SWAP1 PUSH2 0x4E7 JUMP JUMPDEST PUSH2 0x221 JUMP JUMPDEST STOP JUMPDEST PUSH2 0xB4 PUSH1 0x4 DUP1 CALLDATASIZE SUB DUP2 ADD SWAP1 PUSH2 0xAF SWAP2 SWAP1 PUSH2 0x661 JUMP JUMPDEST PUSH2 0x318 JUMP JUMPDEST STOP JUMPDEST PUSH2 0xD0 PUSH1 0x4 DUP1 CALLDATASIZE SUB DUP2 ADD SWAP1 PUSH2 0xCB SWAP2 SWAP1 PUSH2 0x4E7 JUMP JUMPDEST PUSH2 0x387 JUMP JUMPDEST STOP JUMPDEST PUSH0 DUP1 PUSH0 DUP4 PUSH20 0xFFFFFFFFFFFFFFFFFFFFFFFFFFFFFFFFFFFFFFFF AND PUSH1 0x40 MLOAD PUSH1 0x24 ADD PUSH1 0x40 MLOAD PUSH1 0x20 DUP2 DUP4 SUB SUB DUP2 MSTORE SWAP1 PUSH1 0x40 MSTORE PUSH32 0x2E64CEC100000000000000000000000000000000000000000000000000000000 PUSH28 0xFFFFFFFFFFFFFFFFFFFFFFFFFFFFFFFFFFFFFFFFFFFFFFFFFFFFFFFF NOT AND PUSH1 0x20 DUP3 ADD DUP1 MLOAD PUSH28 0xFFFFFFFFFFFFFFFFFFFFFFFFFFFFFFFFFFFFFFFFFFFFFFFFFFFFFFFF DUP4 DUP2 DUP4 AND OR DUP4 MSTORE POP POP POP POP PUSH1 0x40 MLOAD PUSH2 0x17C SWAP2 SWAP1 PUSH2 0x70D JUMP JUMPDEST PUSH0 PUSH1 0x40 MLOAD DUP1 DUP4 SUB DUP2 PUSH0 DUP7 GAS CALL SWAP2 POP POP RETURNDATASIZE DUP1 PUSH0 DUP2 EQ PUSH2 0x1B5 JUMPI PUSH1 0x40 MLOAD SWAP2 POP PUSH1 0x1F NOT PUSH1 0x3F RETURNDATASIZE ADD AND DUP3 ADD PUSH1 0x40 MSTORE RETURNDATASIZE DUP3 MSTORE RETURNDATASIZE PUSH0 PUSH1 0x20 DUP5 ADD RETURNDATACOPY PUSH2 0x1BA JUMP JUMPDEST PUSH1 0x60 SWAP2 POP JUMPDEST POP SWAP2 POP SWAP2 POP DUP2 PUSH2 0x1FF JUMPI PUSH1 0x40 MLOAD PUSH32 0x8C379A000000000000000000000000000000000000000000000000000000000 DUP2 MSTORE PUSH1 0x4 ADD PUSH2 0x1F6 SWAP1 PUSH2 0x7A3 JUMP JUMPDEST PUSH1 0x40 MLOAD DUP1 SWAP2 SUB SWAP1 REVERT JUMPDEST PUSH0 DUP2 DUP1 PUSH1 0x20 ADD SWAP1 MLOAD DUP2 ADD SWAP1 PUSH2 0x214 SWAP2 SWAP1 PUSH2 0x7D5 JUMP JUMPDEST SWAP1 POP DUP1 SWAP4 POP POP POP POP SWAP2 SWAP1 POP JUMP JUMPDEST DUP1 PUSH20 0xFFFFFFFFFFFFFFFFFFFFFFFFFFFFFFFFFFFFFFFF AND DUP3 PUSH1 0x40 MLOAD PUSH1 0x24 ADD PUSH2 0x249 SWAP2 SWAP1 PUSH2 0x4A4 JUMP JUMPDEST PUSH1 0x40 MLOAD PUSH1 0x20 DUP2 DUP4 SUB SUB DUP2 MSTORE SWAP1 PUSH1 0x40 MSTORE PUSH32 0x6057361D00000000000000000000000000000000000000000000000000000000 PUSH28 0xFFFFFFFFFFFFFFFFFFFFFFFFFFFFFFFFFFFFFFFFFFFFFFFFFFFFFFFF NOT AND PUSH1 0x20 DUP3 ADD DUP1 MLOAD PUSH28 0xFFFFFFFFFFFFFFFFFFFFFFFFFFFFFFFFFFFFFFFFFFFFFFFFFFFFFFFF DUP4 DUP2 DUP4 AND OR DUP4 MSTORE POP POP POP POP PUSH1 0x40 MLOAD PUSH2 0x2D3 SWAP2 SWAP1 PUSH2 0x70D JUMP JUMPDEST PUSH0 PUSH1 0x40 MLOAD DUP1 DUP4 SUB DUP2 PUSH0 DUP7 GAS CALL SWAP2 POP POP RETURNDATASIZE DUP1 PUSH0 DUP2 EQ PUSH2 0x30C JUMPI PUSH1 0x40 MLOAD SWAP2 POP PUSH1 0x1F NOT PUSH1 0x3F RETURNDATASIZE ADD AND DUP3 ADD PUSH1 0x40 MSTORE RETURNDATASIZE DUP3 MSTORE RETURNDATASIZE PUSH0 PUSH1 0x20 DUP5 ADD RETURNDATACOPY PUSH2 0x311 JUMP JUMPDEST PUSH1 0x60 SWAP2 POP JUMPDEST POP POP POP POP POP JUMP JUMPDEST PUSH0 DUP2 SWAP1 POP DUP1 PUSH20 0xFFFFFFFFFFFFFFFFFFFFFFFFFFFFFFFFFFFFFFFF AND PUSH4 0x376D9997 DUP5 PUSH1 0x40 MLOAD DUP3 PUSH4 0xFFFFFFFF AND PUSH1 0xE0 SHL DUP2 MSTORE PUSH1 0x4 ADD PUSH2 0x355 SWAP2 SWAP1 PUSH2 0x842 JUMP JUMPDEST PUSH0 PUSH1 0x40 MLOAD DUP1 DUP4 SUB DUP2 PUSH0 DUP8 DUP1 EXTCODESIZE ISZERO DUP1 ISZERO PUSH2 0x36C JUMPI PUSH0 DUP1 REVERT JUMPDEST POP GAS CALL ISZERO DUP1 ISZERO PUSH2 0x37E JUMPI RETURNDATASIZE PUSH0 DUP1 RETURNDATACOPY RETURNDATASIZE PUSH0 REVERT JUMPDEST POP POP POP POP POP POP POP JUMP JUMPDEST PUSH0 DUP2 SWAP1 POP DUP1 PUSH20 0xFFFFFFFFFFFFFFFFFFFFFFFFFFFFFFFFFFFFFFFF AND PUSH4 0x6057361D DUP5 PUSH1 0x40 MLOAD DUP3 PUSH4 0xFFFFFFFF AND PUSH1 0xE0 SHL DUP2 MSTORE PUSH1 0x4 ADD PUSH2 0x3C4 SWAP2 SWAP1 PUSH2 0x4A4 JUMP JUMPDEST PUSH0 PUSH1 0x40 MLOAD DUP1 DUP4 SUB DUP2 PUSH0 DUP8 DUP1 EXTCODESIZE ISZERO DUP1 ISZERO PUSH2 0x3DB JUMPI PUSH0 DUP1 REVERT JUMPDEST POP GAS CALL ISZERO DUP1 ISZERO PUSH2 0x3ED JUMPI RETURNDATASIZE PUSH0 DUP1 RETURNDATACOPY RETURNDATASIZE PUSH0 REVERT JUMPDEST POP POP POP POP POP POP POP JUMP JUMPDEST PUSH0 PUSH1 0x40 MLOAD SWAP1 POP SWAP1 JUMP JUMPDEST PUSH0 DUP1 REVERT JUMPDEST PUSH0 DUP1 REVERT JUMPDEST PUSH0 PUSH20 0xFFFFFFFFFFFFFFFFFFFFFFFFFFFFFFFFFFFFFFFF DUP3 AND SWAP1 POP SWAP2 SWAP1 POP JUMP JUMPDEST PUSH0 PUSH2 0x430 DUP3 PUSH2 0x407 JUMP JUMPDEST SWAP1 POP SWAP2 SWAP1 POP JUMP JUMPDEST PUSH2 0x440 DUP2 PUSH2 0x426 JUMP JUMPDEST DUP2 EQ PUSH2 0x44A JUMPI PUSH0 DUP1 REVERT JUMPDEST POP JUMP JUMPDEST PUSH0 DUP2 CALLDATALOAD SWAP1 POP PUSH2 0x45B DUP2 PUSH2 0x437 JUMP JUMPDEST SWAP3 SWAP2 POP POP JUMP JUMPDEST PUSH0 PUSH1 0x20 DUP3 DUP5 SUB SLT ISZERO PUSH2 0x476 JUMPI PUSH2 0x475 PUSH2 0x3FF JUMP JUMPDEST JUMPDEST PUSH0 PUSH2 0x483 DUP5 DUP3 DUP6 ADD PUSH2 0x44D JUMP JUMPDEST SWAP2 POP POP SWAP3 SWAP2 POP POP JUMP JUMPDEST PUSH0 DUP2 SWAP1 POP SWAP2 SWAP1 POP JUMP JUMPDEST PUSH2 0x49E DUP2 PUSH2 0x48C JUMP JUMPDEST DUP3 MSTORE POP POP JUMP JUMPDEST PUSH0 PUSH1 0x20 DUP3 ADD SWAP1 POP PUSH2 0x4B7 PUSH0 DUP4 ADD DUP5 PUSH2 0x495 JUMP JUMPDEST SWAP3 SWAP2 POP POP JUMP JUMPDEST PUSH2 0x4C6 DUP2 PUSH2 0x48C JUMP JUMPDEST DUP2 EQ PUSH2 0x4D0 JUMPI PUSH0 DUP1 REVERT JUMPDEST POP JUMP JUMPDEST PUSH0 DUP2 CALLDATALOAD SWAP1 POP PUSH2 0x4E1 DUP2 PUSH2 0x4BD JUMP JUMPDEST SWAP3 SWAP2 POP POP JUMP JUMPDEST PUSH0 DUP1 PUSH1 0x40 DUP4 DUP6 SUB SLT ISZERO PUSH2 0x4FD JUMPI PUSH2 0x4FC PUSH2 0x3FF JUMP JUMPDEST JUMPDEST PUSH0 PUSH2 0x50A DUP6 DUP3 DUP7 ADD PUSH2 0x4D3 JUMP JUMPDEST SWAP3 POP POP PUSH1 0x20 PUSH2 0x51B DUP6 DUP3 DUP7 ADD PUSH2 0x44D JUMP JUMPDEST SWAP2 POP POP SWAP3 POP SWAP3 SWAP1 POP JUMP JUMPDEST PUSH0 DUP1 REVERT JUMPDEST PUSH0 DUP1 REVERT JUMPDEST PUSH0 PUSH1 0x1F NOT PUSH1 0x1F DUP4 ADD AND SWAP1 POP SWAP2 SWAP1 POP JUMP JUMPDEST PUSH32 0x4E487B7100000000000000000000000000000000000000000000000000000000 PUSH0 MSTORE PUSH1 0x41 PUSH1 0x4 MSTORE PUSH1 0x24 PUSH0 REVERT JUMPDEST PUSH2 0x573 DUP3 PUSH2 0x52D JUMP JUMPDEST DUP2 ADD DUP2 DUP2 LT PUSH8 0xFFFFFFFFFFFFFFFF DUP3 GT OR ISZERO PUSH2 0x592 JUMPI PUSH2 0x591 PUSH2 0x53D JUMP JUMPDEST JUMPDEST DUP1 PUSH1 0x40 MSTORE POP POP POP JUMP JUMPDEST PUSH0 PUSH2 0x5A4 PUSH2 0x3F6 JUMP JUMPDEST SWAP1 POP PUSH2 0x5B0 DUP3 DUP3 PUSH2 0x56A JUMP JUMPDEST SWAP2 SWAP1 POP JUMP JUMPDEST PUSH0 PUSH8 0xFFFFFFFFFFFFFFFF DUP3 GT ISZERO PUSH2 0x5CF JUMPI PUSH2 0x5CE PUSH2 0x53D JUMP JUMPDEST JUMPDEST PUSH2 0x5D8 DUP3 PUSH2 0x52D JUMP JUMPDEST SWAP1 POP PUSH1 0x20 DUP2 ADD SWAP1 POP SWAP2 SWAP1 POP JUMP JUMPDEST DUP3 DUP2 DUP4 CALLDATACOPY PUSH0 DUP4 DUP4 ADD MSTORE POP POP POP JUMP JUMPDEST PUSH0 PUSH2 0x605 PUSH2 0x600 DUP5 PUSH2 0x5B5 JUMP JUMPDEST PUSH2 0x59B JUMP JUMPDEST SWAP1 POP DUP3 DUP2 MSTORE PUSH1 0x20 DUP2 ADD DUP5 DUP5 DUP5 ADD GT ISZERO PUSH2 0x621 JUMPI PUSH2 0x620 PUSH2 0x529 JUMP JUMPDEST JUMPDEST PUSH2 0x62C DUP5 DUP3 DUP6 PUSH2 0x5E5 JUMP JUMPDEST POP SWAP4 SWAP3 POP POP POP JUMP JUMPDEST PUSH0 DUP3 PUSH1 0x1F DUP4 ADD SLT PUSH2 0x648 JUMPI PUSH2 0x647 PUSH2 0x525 JUMP JUMPDEST JUMPDEST DUP2 CALLDATALOAD PUSH2 0x658 DUP5 DUP3 PUSH1 0x20 DUP7 ADD PUSH2 0x5F3 JUMP JUMPDEST SWAP2 POP POP SWAP3 SWAP2 POP POP JUMP JUMPDEST PUSH0 DUP1 PUSH1 0x40 DUP4 DUP6 SUB SLT ISZERO PUSH2 0x677 JUMPI PUSH2 0x676 PUSH2 0x3FF JUMP JUMPDEST JUMPDEST PUSH0 DUP4 ADD CALLDATALOAD PUSH8 0xFFFFFFFFFFFFFFFF DUP2 GT ISZERO PUSH2 0x694 JUMPI PUSH2 0x693 PUSH2 0x403 JUMP JUMPDEST JUMPDEST PUSH2 0x6A0 DUP6 DUP3 DUP7 ADD PUSH2 0x634 JUMP JUMPDEST SWAP3 POP POP PUSH1 0x20 PUSH2 0x6B1 DUP6 DUP3 DUP7 ADD PUSH2 0x44D JUMP JUMPDEST SWAP2 POP POP SWAP3 POP SWAP3 SWAP1 POP JUMP JUMPDEST PUSH0 DUP2 MLOAD SWAP1 POP SWAP2 SWAP1 POP JUMP JUMPDEST PUSH0 DUP2 SWAP1 POP SWAP3 SWAP2 POP POP JUMP JUMPDEST DUP3 DUP2 DUP4 MCOPY PUSH0 DUP4 DUP4 ADD MSTORE POP POP POP JUMP JUMPDEST PUSH0 PUSH2 0x6E7 DUP3 PUSH2 0x6BB JUMP JUMPDEST PUSH2 0x6F1 DUP2 DUP6 PUSH2 0x6C5 JUMP JUMPDEST SWAP4 POP PUSH2 0x701 DUP2 DUP6 PUSH1 0x20 DUP7 ADD PUSH2 0x6CF JUMP JUMPDEST DUP1 DUP5 ADD SWAP2 POP POP SWAP3 SWAP2 POP POP JUMP JUMPDEST PUSH0 PUSH2 0x718 DUP3 DUP5 PUSH2 0x6DD JUMP JUMPDEST SWAP2 POP DUP2 SWAP1 POP SWAP3 SWAP2 POP POP JUMP JUMPDEST PUSH0 DUP3 DUP3 MSTORE PUSH1 0x20 DUP3 ADD SWAP1 POP SWAP3 SWAP2 POP POP JUMP JUMPDEST PUSH32 0x4E6F2066756E63696F6E6F206C61206C6C616D6164612065787465726E612064 PUSH0 DUP3 ADD MSTORE PUSH32 0x6520726574726965766500000000000000000000000000000000000000000000 PUSH1 0x20 DUP3 ADD MSTORE POP JUMP JUMPDEST PUSH0 PUSH2 0x78D PUSH1 0x2A DUP4 PUSH2 0x723 JUMP JUMPDEST SWAP2 POP PUSH2 0x798 DUP3 PUSH2 0x733 JUMP JUMPDEST PUSH1 0x40 DUP3 ADD SWAP1 POP SWAP2 SWAP1 POP JUMP JUMPDEST PUSH0 PUSH1 0x20 DUP3 ADD SWAP1 POP DUP2 DUP2 SUB PUSH0 DUP4 ADD MSTORE PUSH2 0x7BA DUP2 PUSH2 0x781 JUMP JUMPDEST SWAP1 POP SWAP2 SWAP1 POP JUMP JUMPDEST PUSH0 DUP2 MLOAD SWAP1 POP PUSH2 0x7CF DUP2 PUSH2 0x4BD JUMP JUMPDEST SWAP3 SWAP2 POP POP JUMP JUMPDEST PUSH0 PUSH1 0x20 DUP3 DUP5 SUB SLT ISZERO PUSH2 0x7EA JUMPI PUSH2 0x7E9 PUSH2 0x3FF JUMP JUMPDEST JUMPDEST PUSH0 PUSH2 0x7F7 DUP5 DUP3 DUP6 ADD PUSH2 0x7C1 JUMP JUMPDEST SWAP2 POP POP SWAP3 SWAP2 POP POP JUMP JUMPDEST PUSH0 DUP2 MLOAD SWAP1 POP SWAP2 SWAP1 POP JUMP JUMPDEST PUSH0 PUSH2 0x814 DUP3 PUSH2 0x800 JUMP JUMPDEST PUSH2 0x81E DUP2 DUP6 PUSH2 0x723 JUMP JUMPDEST SWAP4 POP PUSH2 0x82E DUP2 DUP6 PUSH1 0x20 DUP7 ADD PUSH2 0x6CF JUMP JUMPDEST PUSH2 0x837 DUP2 PUSH2 0x52D JUMP JUMPDEST DUP5 ADD SWAP2 POP POP SWAP3 SWAP2 POP POP JUMP JUMPDEST PUSH0 PUSH1 0x20 DUP3 ADD SWAP1 POP DUP2 DUP2 SUB PUSH0 DUP4 ADD MSTORE PUSH2 0x85A DUP2 DUP5 PUSH2 0x80A JUMP JUMPDEST SWAP1 POP SWAP3 SWAP2 POP POP JUMP INVALID LOG2 PUSH5 0x6970667358 0x22 SLT KECCAK256 0x25 0xD2 SLOAD PUSH16 0xB700332779C0A1862C34479ED85E1936 0xE9 0xA9 0xAD 0xE PUSH12 0xAA04F22788E2E64736F6C63 NUMBER STOP ADDMOD BYTE STOP CALLER "
		},
		"gasEstimates": {
			"creation": {
				"codeDepositCost": "440000",
				"executionCost": "472",
				"totalCost": "440472"
			},
			"external": {
				"llamadaUsandoCall(uint256,address)": "infinite",
				"llamadaUsandoImport(uint256,address)": "infinite",
				"nuevoMensaje(string,address)": "infinite",
				"retrieve(address)": "infinite"
			}
		},
		"methodIdentifiers": {
			"llamadaUsandoCall(uint256,address)": "30a4708c",
			"llamadaUsandoImport(uint256,address)": "d312ce52",
			"nuevoMensaje(string,address)": "acb069a3",
			"retrieve(address)": "0a79309b"
		}
	},
	"abi": [
		{
			"inputs": [
				{
					"internalType": "uint256",
					"name": "valorNuevo",
					"type": "uint256"
				},
				{
					"internalType": "address",
					"name": "direccion",
					"type": "address"
				}
			],
			"name": "llamadaUsandoCall",
			"outputs": [],
			"stateMutability": "nonpayable",
			"type": "function"
		},
		{
			"inputs": [
				{
					"internalType": "uint256",
					"name": "valorNuevo",
					"type": "uint256"
				},
				{
					"internalType": "address",
					"name": "direccion",
					"type": "address"
				}
			],
			"name": "llamadaUsandoImport",
			"outputs": [],
			"stateMutability": "nonpayable",
			"type": "function"
		},
		{
			"inputs": [
				{
					"internalType": "string",
					"name": "mensaje",
					"type": "string"
				},
				{
					"internalType": "address",
					"name": "direccion",
					"type": "address"
				}
			],
			"name": "nuevoMensaje",
			"outputs": [],
			"stateMutability": "nonpayable",
			"type": "function"
		},
		{
			"inputs": [
				{
					"internalType": "address",
					"name": "direccion",
					"type": "address"
				}
			],
			"name": "retrieve",
			"outputs": [
				{
					"internalType": "uint256",
					"name": "",
					"type": "uint256"
				}
			],
			"stateMutability": "nonpayable",
			"type": "function"
		}
	]
}